:04000000ABEF07F06B
:1008000000636F6E7420696E636F727265637461EA
:10081000007465636C65617220636F6E7472610051
:0F082000726570697461006573706572650000C0
:10083000000E0F6E000E0E6E9EEF05F0410E0D6E57
:10084000EE0EE82EFED70D2EFCD700D08C808C92B9
:100850008C948C9683AE2FEF04F031EF04F047EFC9
:1008600004F083BA36EF04F038EF04F031EF04F00F
:10087000D8900E34D96E0F34DA6E010ED926000EE0
:10088000DA22030EDE6E000EDD6E0E4A0F2A83ACF6
:100890004CEF04F04EEF04F064EF04F083BC53EF30
:1008A00004F055EF04F04EEF04F0D8900E34D96EFA
:1008B0000F34DA6E010ED926000EDA22020EDE6E39
:1008C000000EDD6E0E4A0F2A83AA69EF04F06BEF6B
:1008D00004F081EF04F0D8900E34D96E0F34DA6E44
:1008E000010ED926000EDA22010EDE6E000EDD6E3C
:1008F00083BA7DEF04F07FEF04F078EF04F00E4A46
:100900000F2A83A886EF04F088EF04F08AEF04F042
:100910000E4A0F2A410E0D6EEE0EE82EFED70D2E5A
:10092000FCD700D08C908C828C948C9683AE9BEFFD
:1009300004F09DEF04F0ACEF04F0D8900E34D96EC3
:100940000F34DA6E010ED926000EDA22060EDE6EA4
:10095000000EDD6E0E4A0F2A83ACB1EF04F0B3EF48
:1009600004F0C2EF04F0D8900E34D96E0F34DA6E72
:10097000010ED926000EDA22050EDE6E000EDD6EA7
:100980000E4A0F2A83AAC7EF04F0C9EF04F0DFEF85
:1009900004F083BACEEF04F0D0EF04F0C9EF04F016
:1009A000D8900E34D96E0F34DA6E010ED926000EAF
:1009B000DA22040EDE6E000EDD6E0E4A0F2A83A8C8
:1009C000E4EF04F0E6EF04F0E8EF04F00E4A0F2A3B
:1009D000410E0D6EEE0EE82EFED70D2EFCD700D088
:1009E0008C908C928C848C9683AEF9EF04F0FBEFA4
:1009F00004F00AEF05F0D8900E34D96E0F34DA6E99
:100A0000010ED926000EDA22090EDE6E000EDD6E12
:100A10000E4A0F2A83AC0FEF05F011EF05F020EF1F
:100A200005F0D8900E34D96E0F34DA6E010ED92647
:100A3000000EDA22080EDE6E000EDD6E0E4A0F2A60
:100A400083AA25EF05F027EF05F036EF05F0D890E3
:100A50000E34D96E0F34DA6E010ED926000EDA226A
:100A6000070EDE6E000EDD6E0E4A0F2A83A83BEFE6
:100A700005F03DEF05F03FEF05F00E4A0F2A410E5D
:100A80000D6EEE0EE82EFED70D2EFCD700D08C900A
:100A90008C928C948C8683AE50EF05F052EF05F06B
:100AA00054EF05F00E4A0F2A83AC59EF05F05BEFC7
:100AB00005F06AEF05F0D8900E34D96E0F34DA6E77
:100AC000010ED926000EDA22000EDE6E000EDD6E5B
:100AD0000E4A0F2A83AA6FEF05F071EF05F073EF4E
:100AE00005F00E4A0F2A83A878EF05F07AEF05F09B
:100AF0007CEF05F00E4A0F2A80A481EF05F083EF0A
:100B000005F09EEF05F080B488EF05F08AEF05F060
:100B100083EF05F0000E026E010E016E000E046EF2
:100B2000020E036E000E066E030E056E000E086EBA
:100B3000040E076E000E0F6E040E0E6E0FBEAAEFAF
:100B400005F00F5009E1040E0E5CD8A0AAEF05F0E5
:100B5000ACEF05F01EEF04F012000F0EC16EF00EA8
:100B6000956EFC0E926E30EC07F0020E68EC07F00A
:100B7000010E68EC07F0898080A4C1EF05F0C3EF97
:100B800005F00AEF06F080B4C8EF05F0CAEF05F0F3
:100B9000C3EF05F00BC00DF00CC00EF0000E106E90
:100BA000020E0F6ECEEC06F00DC009F00EC00AF07A
:100BB00009C015F00AC016F0D89015361636155033
:100BC0000B5C176E16500C58186E17501810D8A4DE
:100BD000ECEF05F0EEEF05F0F0EF05F0898289907B
:100BE00009C015F00AC016F0D89015361636155003
:100BF0000B5C176E16500C58186E17041810D8A4FA
:100C000004EF06F006EF06F008EF06F089928980FF
:100C10000B4A0C2A80A60FEF06F011EF06F0C1EF89
:100C200006F0110E116E080E126E4DEC07F0C00E9C
:100C300068EC07F0270E116E080E126E4DEC07F0EF
:100C4000080E166E9D0E156E060EE82EFED7152E9A
:100C5000FCD7162EFAD785EF06F0010E68EC07F0E8
:100C600018EC04F001040210D8A439EF06F03BEFB1
:100C700006F059EF06F0020E03180410D8A443EF53
:100C800006F045EF06F059EF06F0030E05180610C2
:100C9000D8A44DEF06F04FEF06F059EF06F0040E22
:100CA00007180810D8B457EF06F059EF06F085EF93
:100CB00006F0010E116E080E126E4DEC07F0C00E1C
:100CC00068EC07F0200E116E080E126E4DEC07F066
:100CD00089808992040E166ECF0E156E020EE82ED4
:100CE000FED7152EFCD7162EFAD7000E026E000E78
:100CF000016E000E046E000E036E000E066E000EF6
:100D0000056E000E086E000E076E01040210D8A4D6
:100D10008CEF06F08EEF06F02DEF06F0020E0318B2
:100D20000410D8A496EF06F098EF06F02DEF06F029
:100D3000030E05180610D8A4A0EF06F0A2EF06F0E7
:100D40002DEF06F0040E07180810D8A4AAEF06F03D
:100D5000ACEF06F02DEF06F0010E68EC07F0000E88
:100D6000026E000E016E000E046E000E036E000E89
:100D7000066E000E056E000E086E000E076E89905E
:100D8000898280A8C6EF06F0C8EF06F0BCEF05F038
:100D900089928980BCEF05F000EF00F0000E126E22
:100DA00010BED7EF06F0D5EF06F0DDEF06F00F6CC2
:100DB000101ED8B0102A010E126E0EBEE4EF06F01F
:100DC000E2EF06F0EAEF06F00D6C0E1ED8B00E2A28
:100DD000010E121A000E146E000E136E0F5010103A
:100DE000D8B4F5EF06F0F7EF06F01FEF07F0010EAD
:100DF000116EFFEF06F0D8900F361036112A10AEA4
:100E000004EF07F006EF07F0FBEF06F0D89013367B
:100E100014360F500D5C10500E58D8A012EF07F08A
:100E200014EF07F019EF07F00F500D5E10500E5A37
:100E30001380D89010320F32112E06EF07F01250A7
:100E4000D8B425EF07F027EF07F02BEF07F0136C6E
:100E5000141ED8B0142A13C00DF014C00EF01200E6
:100E60000F0E936E9394939293900A0E116EBC0E94
:100E7000E82EFED7112EFCD700D0320E68EC07F01A
:100E8000280E68EC07F00C0E68EC07F0010E68EC19
:100E900007F0060E68EC07F0120059EF07F011C0DA
:100EA000F6FF12C0F7FF0800F55082EC07F0114A78
:100EB000122A11C0F6FF12C0F7FF0800F550000912
:100EC000D8A465EF07F067EF07F04FEF07F01200C7
:100ED000106E040E0F6E3E0EE82EFED70F2EFCD7BE
:100EE000000E0D6E105098EC07F01038F00B106EDD
:100EF000A60EE82EFED700D0000E0D6E105098EC16
:100F000007F01200106E040E0F6E3E0EE82EFED794
:100F10000F2EFCD7010E0D6E105098EC07F0103814
:100F2000F00B106E010E0D6E105098EC07F01200D1
:100F30000E6E0E50F00B0E6E8A500F0B8A6E8A509A
:100F40000E108A6E0DB002D08A9001D08A808A92EB
:100F50008A848A94120000EE01F00C0EEE6AE80614
:100F6000FDE1000EF86E080EF76E0001ADEF05F022
:020000040020DA
:08000000FFFFFFFFFFFFFFFF00
:020000040030CA
:0E00000000051F1FFF8385FF0FC00FE00F409C
:00000001FF
